:020000040000FA
:0600000054EF01F01200B4
:020006001200E6
:0600080016EF00F01200EB
:0600180065EF00F012008C
:02001E000100DF
:0C002000C4020000800000000E00000080
:04002C00DACFE4FF44
:10003000E2CFDAFFE9CFE4FFEACFE4FFF6CFE4FF57
:10004000F7CFE4FFF5CFE4FFF3CFE4FFF4CFE4FF15
:10005000FACFE4FF00EE04F0020EE80403E3EECF73
:10006000E4FFFBD700EE00F0040EE80403E3EECF5C
:10007000E4FFFBD7E652F29E9EBA3AD89EA800D083
:10008000F28EE55200EE03F0040EE80403E3E5CF40
:10009000EDFFFBD700EE05F0020EE80403E3E5CF29
:1000A000EDFFFBD7E5CFFAFFE5CFF4FFE5CFF3FF98
:1000B000E5CFF5FFE5CFF7FFE5CFF6FFE5CFEAFFA8
:1000C000E5CFE9FFE5CFDAFF1100D8CFE4FFE0CFBD
:1000D000E4FFE46EDACFE4FFE2CFDAFFE652E55266
:1000E000E5CFDAFFE550E5CFE0FFE5CFD8FF100020
:1000F00098C0A9FFAE50A86EA69EA69CA684550ED9
:10010000A76EAA0EA76EA682F28EA1A8FED7A1980E
:100110000001982B992B811C816E1200956A936ABD
:10012000AA0E816E836A0001986B010E996F15D833
:100130000E0E0001995D0FE1986B4ED8816E0001A3
:10014000982B0A0EE66E18D8E5520D0E0001985D48
:1001500001E1986BF2D7ECD71200400EAF6E948E8F
:10016000949CAC84AC8AAB8EAB88F28EF28C9D8A68
:100170009E9A9E9800D01200D9CFE6FFE1CFD9FF1A
:10018000020EE126DE6ADD6ADECF00F0DDCF01F08F
:10019000FE0EDB50026E036A0050025C01500358F1
:1001A00010E3050ED56EF00ED76EBE0ED66ED58E50
:1001B000F2A4FED7D59EF294DF2A010E01E3DB2ADA
:1001C000E3D7020EE15C03E200D0E16AE552E16EA2
:1001D000E552E7CFD9FF120098C0A9FFA69EA69CC2
:0A01E000A6800000A85000D0120015
:0601EA001E0EF66E000E71
:1001F000F76E000EF86E00010900F550936F0900CC
:10020000F550946F03E1936701D03DD00900F5509C
:100210008E6F0900F5508F6F0900F550906F09003F
:100220000900F550E96E0900F550EA6E0900090071
:100230000900F550916F0900F550926F090009000F
:10024000F6CF95F0F7CF96F0F8CF97F08EC0F6FF87
:100250008FC0F7FF90C0F8FF0001915302E1925365
:1002600007E00900F550EE6E9107F8E29207F9D722
:1002700095C0F6FF96C0F7FF97C0F8FF00019307FF
:08028000000E945BBFD71200D1
:08028800000EF36E00EE00F021
:10029000060E01D81200EA6002D0EE6AFCD7F350D5
:0802A000E9601200EE6AFCD7D0
:0802A80015EE00F025EE00F058
:1002B000F86A059CF5EC00F003EC00F08EEC00F021
:0402C000FBD7120056
:0C02C4000000000000000000000000002E
:0202D00000002C
:00000001FF
