:10005700E4F5B0F5A0F590F580750803C2A7C2A630
:1000670030900320910620900A209107E4F580D272
:10007700A7D2A63090062091031200C03091E1204C
:0700870090DE12008E80D90B
:10000300758901E508D394044003750804E508C322
:1000130094005003E4F508E508B40105E4F58CF514
:100023008AE508B40205E4F58CF58AE508B403060D
:10003300758CFF758AFFE508B40405E4F58CF58A31
:10004300E508B40505E4F58CF58AD28C308DFDC244
:040053008CC28D22AC
:1000C0008014209116120003E580C313F580E580AB
:0C00D000B480EF12000375801080E7225E
:10008E00C2A7D2A620902A758080120003758040E8
:10009E0012000375802012000375801012000330C9
:1000AE00920512000305083093DA1200031508803A
:0200BE00D3224B
:030000000200DC1F
:0C00DC00787FE4F6D8FD7581080200571B
:00000001FF
