:020000040000FA
:06000000B7EF03F012004F
:020006001200E6
:060008000EEF00F01200F3
:02000E000100EF
:0C001000A6070000800000000C000000AB
:04001C00DACFE4FF54
:10002000E2CFDAFFE9CFE4FFEACFE4FFF6CFE4FF67
:10003000F7CFE4FFF5CFE4FFF3CFE4FFF4CFE4FF25
:10004000FACFE4FF00EE00F0020EE80403E3EECF87
:10005000E4FFFBD700EE02F0020EE80403E3EECF6C
:10006000E4FFFBD7E652F2B008DAE55200EE03F007
:10007000020EE80403E3E5CFEDFFFBD700EE01F04D
:10008000020EE80403E3E5CFEDFFFBD7E5CFFAFF6F
:10009000E5CFF4FFE5CFF3FFE5CFF5FFE5CFF7FFC1
:1000A000E5CFF6FFE5CFEAFFE5CFE9FFE5CFDAFFE1
:1000B0001100D9CFE6FFE1CFD9FF460EE126D9CF17
:1000C000E9FFDACFEAFF410EEE6E420EEE6E440E0D
:1000D000EE6E550EEE6E4C0EEE6EEE6E410EEE6E48
:1000E000480EEE6E200EEE6E540EEE6E410EEE6E6B
:1000F000480EEE6E490EEE6E520EEE6EEE6AD9505E
:100100000F0FE96EDACFEAFF550EEE6E450EEE6E7A
:10011000540EEE6E200EEE6E4C0EEE6E480EEE6E2F
:10012000520EEE6E200EEE6E460EEE6E530EEE6E1C
:10013000440EEE6E200EEE6E430EEE6E410EEE6E2F
:100140004D0EEE6E500EEE6E550EEE6E530EEE6EC2
:10015000EE6AD950220FE96EDACFEAFF440EEE6E56
:10016000430EEE6E200EEE6E4D0EEE6E4F0EEE6EE8
:10017000540EEE6E4F0EEE6E520EEE6E200EEE6EC2
:10018000430EEE6E4F0EEE6E4E0EEE6E540EEE6E93
:10019000520EEE6E4F0EEE6E4C0EEE6EEE6AD950B3
:1001A000330FE96EDACFEAFF430EEE6E550EEE6EB8
:1001B000520EEE6EEE6E450EEE6E4E0EEE6E540E5E
:1001C000EE6E200EEE6E530EEE6E540EEE6E410E7F
:1001D000EE6E540EEE6E550EEE6E530EEE6E200E5B
:1001E000EE6E3D0EEE6E200EEE6E300EEE6EEE6A90
:1001F000000E966E926E946E956E846E806E826E18
:10020000836EF19EF00E936E816EF00E815C01E0C4
:10021000FCD7F286F28E380EE66E00D9E5520C0E4F
:10022000E66EFCD8E552010EE66EF8D8E552060EF1
:10023000E66EF4D8E552830EE66EF0D8E552000182
:10024000996BD9CFE6FFDACFE6FFC5EC03F0E552B4
:10025000E552F3CF02F0F4CF03F00206000E035A8A
:1002600000019951025C000E035812E3D9CF02F04D
:10027000DACF03F099510F010224E96E000E03203A
:10028000EA6EEF50E66EA7D8E5520001992BD9D758
:10029000C10EE66EC3D8E5520001996BD9500F0F1D
:1002A000E66E000EDA20E66EC5EC03F0E552E5528C
:1002B000F3CF02F0F4CF03F00206000E035A000160
:1002C0009951025C000E035813E3D9500F0F026ED0
:1002D000DACF03F099510F010224E96E000E0320DA
:1002E000EA6EEF50E66E77D8E5520001992BD6D72B
:1002F000960EE66E93D8E5520001996BD950220F05
:10030000E66E000EDA20E66EC5EC03F0E552E5522B
:10031000F3CF02F0F4CF03F00206000E035A0001FF
:100320009951025C000E035813E3D950220F026E5C
:10033000DACF03F099510F010224E96E000E032079
:10034000EA6EEF50E66E47D8E5520001992BD6D7FA
:10035000D50EE66E63D8E5520001996BD950330F84
:10036000E66E000EDA20E66EC5EC03F0E552E552CB
:10037000F3CF02F0F4CF03F00206000E035A00019F
:100380009951025C000E035813E3D950330F026EEB
:10039000DACF03F099510F010224E96E000E032019
:1003A000EA6EEF50E66E17D8E5520001992BD6D7CA
:1003B0009D0ECB6E030ECA6EBE6A2C0EBD6ECA8435
:1003C000FFD7460EE15C02E2E16AE552E16EE552DA
:1003D000E7CFD9FF1200D9CFE6FFE1CFD9FF10D880
:1003E000FE0EDB50836E828E829C828A0A0EE66E3F
:1003F0002AD8E552829A00D0E552E7CFD9FF120001
:100400009568829E828C828A0A0EE66E1CD8E5521E
:10041000829A83BEF8D7956A00D01200D9CFE6FF42
:10042000E1CFD9FFEDDFFE0EDB50836E829E829C12
:10043000828A0A0EE66E07D8E552829A00D0E5520B
:10044000E7CFD9FF1200D9CFE6FFE1CFD9FF0001F6
:10045000010E976FFE0EDB50D880975509E3010E11
:10046000986F9851640802E3982BFBD7972BF2D72B
:1004700000D0E552E7CFD9FF1200D9CFE6FFE1CF98
:10048000D9FF0B0EE126D9CFE9FFDACFEAFF490EFB
:10049000EE6E4E0EEE6E560EEE6E410EEE6E4C0E83
:1004A000EE6E490EEE6E440EEE6EEE6AF00E815C5C
:1004B00001E18AD0090EDB6A0A0EDB6A0F0EE66ED6
:1004C000C2DFE552080E81CFDBFFF00E026E080E90
:1004D000DBCFE7FF0250E71A080EE7CFDBFFDB5068
:1004E00001E173D0D950080FE96EDACFEAFFEF9E31
:1004F000EF46EF5003E0090EDB2AF4D7FE0E816EC3
:10050000815C03E00A0EDB6A1DD0FD0E816E815C0A
:1005100006E0010EF36E0A0EF3CFDBFF13D0FB0EE5
:10052000816E815C06E0020EF36E0A0EF3CFDBFFF4
:1005300009D0F70E816E815C05E0030EF36E0A0EA2
:10054000F3CFDBFFE60EE66E69DFE552040EF36ED5
:100550000A0EDBCFF4FFF350F45C32E24B0EE66E92
:100560003ADFE5520A0EDB50030DF3CF02F0F4CF71
:1005700003F0800E0226000E0322090EDB500F014D
:100580000224E96E000E0320EA6EEF50E66E23DFD0
:10059000E5520A0EDB50030DF3CF02F0F4CF03F067
:1005A000800E0226000E0322090EDB500F010224EA
:1005B000E96E000E0320EA6EEF50E66E10D8E552A9
:1005C000F00E816EF29001D0F2900B0EE15C02E22F
:1005D000E16AE552E16EE552E7CFD9FF1200D9CFCB
:1005E000E6FFE1CFD9FFFE0EDB50300805E1829235
:1005F0008290BD6A829457D0FE0EDB50310807E12D
:10060000828482808292BE680C0EBD6E4CD0FE0E3B
:10061000DB50320804E182848280829244D0FE0E54
:10062000DB50330804E18290828482823CD0FE0E4B
:10063000DB50340805E1BE6882848282828033D038
:10064000FE0EDB50350806E10F0EBE6E3C0EBD6E91
:10065000828429D0FE0EDB50360806E12F0EBE6ED6
:100660000C0EBD6E82841FD0FE0EDB50370806E1F3
:100670004E0EBE6E2C0EBD6E828415D0FE0EDB506B
:10068000380806E16E0EBE6E0C0EBD6E82840BD075
:10069000FE0EDB50390806E18D0EBE6E1C0EBD6EDF
:1006A000828401D001D000D0E552E7CFD9FF1200FB
:1006B0000E0EF66E000EF76E000EF86E00010900C9
:1006C000F550916F0900F550926F03E1916701D0E9
:1006D0003DD00900F5508C6F0900F5508D6F090071
:1006E000F5508E6F09000900F550E96E0900F550CC
:1006F000EA6E090009000900F5508F6F0900F550F6
:10070000906F09000900F6CF93F0F7CF94F0F8CF7F
:1007100095F08CC0F6FF8DC0F7FF8EC0F8FF00018A
:100720008F5302E1905307E00900F550EE6E8F07FA
:10073000F8E29007F9D793C0F6FF94C0F7FF95C091
:0E074000F8FF00019107000E925BBFD7120078
:02074E00000E9B
:10075000F36E00EE00F0060E01D81200EA6002D03F
:0E076000EE6AFCD7F350E9601200EE6AFCD797
:02076E0015EE86
:1007700000F025EE00F0F86A019C58EC03F003EC61
:0A07800000F059EC00F0FBD7120066
:06078A00FE0EE3CFE9FFC3
:10079000FF0EE3CFEAFFF36AF46AEE5203E0F34A96
:0607A000F42AFBD7120051
:0A07A6003332313635343938372349
:0207B000302AED
:020000040030CA
:0100010022DC
:0100020003FA
:010003000EEE
:010006008079
:00000001FF
