:020000040000FA
:06000000F2EF00F0120017
:020006000000F8
:0800080095EF00F01200000169
:100010008A6B8B6BF29E000E966E936E956E846E5D
:10002000816E836E10D800018B5101E1FCD78B6B80
:10003000F29CF29E8468CF50816ECE50836E22D89F
:1000400023D8F0D71200050EBD6EB16ACD6ACF6A13
:10005000CE6A94849D84F28CF28E00D0120000014E
:100060008A5106E1CD80010E8A6FBD909E9409D021
:100070008A0507E1CD908A6BBD809E94010E8B6F3F
:0C00800000D0120000D0120000D01200CE
:04008C00060EF66EF8
:10009000000EF76E000EF86E00010900F550856F36
:1000A0000900F550866F03E1856701D03DD0090056
:1000B000F550806F0900F550816F0900F550826F8F
:1000C00009000900F550E96E0900F550EA6E0900D3
:1000D00009000900F550836F0900F550846F09008D
:1000E0000900F6CF87F0F7CF88F0F8CF89F080C00D
:1000F000F6FF81C0F7FF82C0F8FF0001835302E1E1
:10010000845307E00900F550EE6E8307F8E2840798
:10011000F9D787C0F6FF88C0F7FF89C0F8FF000154
:0A0120008507000E865BBFD71200B2
:06012A00DACFE4FFE2CF92
:10013000DAFFE9CFE4FFEACFE4FFF6CFE4FFF7CF41
:10014000E4FFF5CFE4FFF3CFE4FFF4CFE4FFFACF11
:10015000E4FF00EE00F0020EE80403E3EECFE4FF5C
:10016000FBD700EE02F0000EE80403E3EECFE4FF5D
:10017000FBD7E6529EA402D02FEC00F0E55200EE31
:1001800001F0000EE80403E3E5CFEDFFFBD700EE3E
:1001900001F0020EE80403E3E5CFEDFFFBD7E5CF66
:1001A000FAFFE5CFF4FFE5CFF3FFE5CFF5FFE5CFAD
:1001B000F7FFE5CFF6FFE5CFEAFFE5CFE9FFE5CFB3
:0401C000DAFF110051
:0C01C400000EF36E00EE00F0060E01D8F5
:1001D0001200EA6002D0EE6AFCD7F350E960120028
:0401E000EE6AFCD7F0
:0C01E40015EE00F025EE00F0F86A019C1A
:1001F00046EC00F000EC01F007EC00F0FBD7120039
:020200001200EA
:020000040030CA
:0100010022DC
:0100020003FA
:010003000EEE
:010006008079
:00000001FF
