:100954002D2D2057656C636F6D65202D2D554554E5
:100964002046534420454C45432D2D30394D2041DC
:100974006264756C6C616842696C6177616C497220
:100984007368616420556C6C61684A756E61696452
:010994000062
:1009C9007F38120A367F0C120A367F01120A367FE7
:1009D90006120A367F82120A367F01120A36120877
:0309E9000080FE8D
:1008BF00E4F50F120A0C050FE50FD3940C40F47FEB
:1008CF00907E0112099D7FC0120A36750F0D120A14
:1008DF000C050FE50FD3941C40F47FDC7E05120945
:1008EF009D7F01120A367F80120A36750F1D120A7C
:1008FF000C050FE50FD3942640F47FC0120A36750E
:10090F000F27120A0C050FE50FD3942D40F47FDC4F
:10091F007E0512099D7F01120A36750F2E120A0CE1
:10092F00050FE50FD3943940F47FC0120A36750FC7
:10093F003A120A0C050FE50FD3943F40F47FDC7E8B
:04094F000512099DE7
:010953002281
:100A36008F0D120A23850D90C2B4120995C2B222F7
:070A0C00E50F90095493FF70
:100A13008F0E120A23850E90D2B4120995C2B22208
:100A2300D297C2B4D2B3309709C2B2120999D2B2E3
:030A330080F4222A
:1008000090000A7420F0A37483F09000047423F025
:100810009000027459F09000007455F09000077435
:1008200009F0A37402F0A37412F07FC3120A369089
:100830000007E0FF900009E0F50B1209EC7F2012A1
:100840000A137F46120A137F45120A137F42120AC7
:10085000137F20120A137F32120A137F30120A13F9
:10086000AF0B1209EC90000B7403F07F84120A3670
:1008700090000A7420F07F007E0312099D9000040E
:10088000E0F5087F147E0012099D900002E0F50952
:100890007F147E0012099D900000E0F50A7F147E0F
:1008A0000012099DAF081209EC7F3A120A13AF0932
:0F08B0001209EC7F3A120A13AF0A1209EC80AC5E
:0209EC00AE0754
:1009EE00E4F50DEE540FF50D430D30EE54F0C454F6
:0D09FE000FFF430730120A13AF0D120A134A
:010A0B0022C8
:08099500C2B3D2B27F327E0032
:10099D00751000751101C3E5119FE5109E501C7572
:1009AD008901758CFC758A66D28C308DFDC28CC226
:0C09BD008D0511E51170DF051080DB22B4
:03000000020A46AB
:0C0A4600787FE4F6D8FD7581120209C922
:00000001FF
