:0F0AE900414244554C4C41482054414849520029
:1008000078087C007D007BFF7A0A79E97E007F0F03
:10081000120A03E4F5B0F5A0F590F5807F38120ACE
:10082000C97F0C120AC97F01120AC97F06120AC9C0
:100830007F81120AC9E4F5247B007A007908120A44
:10084000A1EF24FFFFEE34FFFED3E5249FEE64808A
:10085000F8748098500E74082524F8E6FF120AD91F
:10086000052480D4E4F51A751B0A751C15751D1135
:10087000751E0A751F04F5207BCE7D077F78120A4E
:1008800042E4F51A751B0AF51C751D04751E0475E6
:100890001F1175200E7BCC7D067F70120A42E4F595
:1008A0001A751B11751C0A751D11F51E751F0E7525
:1008B00020117BCA7D057F68120A42751A15751BC7
:1008C0000A751C15751D0A751E15751F0A752015EC
:1008D0007BC87D047F60120A42751A1F751B1E7546
:1008E0001C1D751D1B751E17751F0F75201F7BC6E0
:1008F0007D037F58120A42751A04751B0A751C0481
:10090000E4F51D751E04751F0A7520047BC47D0265
:100910007F50120A42751A11751B04751C11751D42
:1009200004751E11751F047520117BC27D017F485F
:03093000020A4276
:100A42008D188B19120AC9AF1A120AD9AF1B120AD2
:100A5200D9AF1C120AD9AF1D120AD9AF1E120AD978
:100A6200AF1F120AD9AF20120AD9AF19120AC9AFA1
:050A720018120AD92250
:100AC9008F21120AB6852180C295120A77C2972210
:100AD9008F21120AB6852180D295120A77C29722F0
:100AB600D287C295D296308709C297120A7BD297FF
:030AC60080F42297
:080A7700C296D2977F327E0087
:100A7F00752301C3E5239FE49E5016758901758C7C
:100A8F00FC758A66D28C308DFDC28CC28D05238099
:020A9F00E22251
:03000000020AF8F9
:0C0AF800787FE4F6D8FD75812402080028
:10093300E709F608DFFA8046E709F208DFFA803EA6
:1009430088828C83E709F0A3DFFA8032E309F60893
:10095300DFFA8078E309F208DFFA807088828C83FB
:10096300E309F0A3DFFA806489828A83E0A3F608AF
:10097300DFFA805889828A83E0A3F208DFFA804C89
:1009830080D280FA80C680D4806980F28033801060
:1009930080A680EA809A80A880DA80E280CA8033C9
:1009A30089828A83ECFAE493A3C8C582C8CCC58341
:1009B300CCF0A3C8C582C8CCC583CCDFE9DEE78011
:1009C3000D89828A83E493A3F608DFF9ECFAA9F090
:1009D300EDFB2289828A83ECFAE0A3C8C582C8CCE6
:1009E300C583CCF0A3C8C582C8CCC583CCDFEADEFF
:1009F300E880DB89828A83E493A3F208DFF980CC61
:100A030088F0EF60010E4E60C388F0ED2402B40459
:100A13000050B9F582EB2402B4040050AF23234500
:060A230082239009837399
:100AA100E4FFFE120A29600C0FEF70010E09E970D4
:050AB100F20A80EF22B3
:100A2900BB010689828A83E0225002E722BBFE02CB
:090A3900E32289828A83E49322FE
:00000001FF
