:10095900E4F58075A00175900F758920758DFD7579
:100969009850D28ED2B77F661209361208EF80F6F8
:020936008F0B25
:10093800E50BB4660F3098FDC29885990C7D66AFBB
:100948000C120800E50BB472077D72AF0C12080098
:01095800227C
:1008EF003092FDC2B7750900750A01AE09AF0AE46F
:1008FF00FCFD7B507AC3F9F8C3120979400A050A47
:10090F00E50A70E7050980E3D2B77F7212093675E1
:10091F000900750A017599093099FDC299050AE513
:07092F000A70F2050980EED9
:10080000ED646670727C01ECD39F506B7E0175A025
:1008100011E4F509F50A050AE50A70020509B411A3
:10082000F5E509B427F075A022E4F509F50A050AF3
:10083000E50A70020509B411F5E509B427F075A0C1
:1008400044E4F509F50A050AE50A70020509B41140
:10085000F5E509B427F075A088E4F509F50A050A5D
:10086000E50A70020509B411F5E509B427F00EEEAA
:10087000640D709A0C8090ED647270727C01ECD300
:100880009F506B7E0175A088E4F509F50A050AE51D
:100890000A70020509B411F5E509B427F075A04402
:1008A000E4F509F50A050AE50A70020509B411F52F
:1008B000E509B427F075A022E4F509F50A050AE573
:1008C0000A70020509B411F5E509B427F075A01105
:1008D000E4F509F50A050AE50A70020509B411F5FF
:0E08E000E509B427F00EEE640D709A0C8090BE
:0108EE0022E7
:0300000002098F63
:0C098F00787FE4F6D8FD75810C02095950
:10097900EB9FF5F0EA9E42F0E99D42F0EC6480C8F5
:0609890064809845F02295
:00000001FF
