:100DEB00233A204E65787400572045204C20432031
:100DFB004F204D204500506F696E7473203D203499
:100E0B0000582C593A20203D20202C2020005374D0
:0D0E1B00617475733A004D4F56494E470003
:0E0EC2000C2B3132333435363738392A302391
:100E2800E4F5A0F590F58075A0F0758926759850C1
:100E3800758DFDC299C298D28E120B1C120C388087
:010E4800FEAB
:100B1C00C2B7C2B6C2B3C2B253A00F7F38120EB264
:100B2C007F0C120EB27F01120EB27F06120EB27F34
:100B3C0081120EB2E4F537F5387BFF7A0D79F3129A
:100B4C000E78EF24FFFFEE34FFFED3E5389FE53738
:100B5C009E5010900DF3120E640538E53870DA05CE
:100B6C003780D67FC0120EB2E4F537F5387BFF7AAA
:100B7C000D79EB120E78EF24FFFFEE34FFFED3E578
:100B8C00389FE5379E500D120E610538E53870DD43
:0F0B9C00053780D9120A74BF23FA7F01120EB2F7
:010BAB002227
:100C38007F80120EB2E4F537F5387BFF7A0E790122
:100C4800120E78EF24FFFFEE34FFFED3E5389FE560
:100C5800379E5014E538900E0193FF120E68053840
:100C6800E53870D6053780D27FC0120EB2E4F5376A
:100C7800F5387BFF7A0D79EB120E78EF24FFFFEE43
:100C880034FFFED3E5389FE5379E500D120E6105FF
:100C980038E53870DD053780D9750804120A74BF45
:0C0CA80023FA7F01120EB2AF081209956A
:010CB400221D
:020995008F09C8
:10099700E4F520750A20751E01E51ED3950940036D
:1009A700020A66E4F537F5387BFF7A0E790C120EEA
:1009B70078EF24FFFFEE34FFFED3E5389FE5379E3F
:1009C7005014E538900E0C93FF120E680538E53881
:1009D70070D6053780D2E51E540FF51FE51E44304B
:1009E700F51F7F84120EB2AF1F120E687FC0120E62
:1009F700B2E4F537F5387BFF7A0D79EB120E78EF15
:100A070024FFFFEE34FFFED3E5389FE5379E500DF8
:100A1700120E610538E53870DD053780D9120A7482
:100A27008F217F88120EB2AF21120E68AF200520EA
:100A3700740A2FF8A621120A748F217F8A120EB228
:100A4700AF21120E68AF200520740A2FF8A62112D5
:100A57000A74BF23FA7F01120EB2051E0209A07B9A
:0C0A6700007A00790AAD1EAF09120CB530
:010A73002260
:080CB5008F228B238A2489257C
:100CBD007F01120EB2E4FDE52225E014FFEDD39F76
:100CCD005015AB23E5252DF9E43524FA120D935477
:100CDD000F120DD90D80E0AB23AA24A92590000198
:100CED00120DAC900003120DAC900002120DAC90E1
:100CFD000004120DAC900007120DACFF9000051210
:100D0D000DACC39FFC900006120DACFF120D93FEAF
:0C0D1D00C3EF9EAD06AB04F529120800E0
:010D290022A7
:060800008F268D278B28D6
:100806007F80120EB2E4F537F5387BFF7A0E791940
:10081600120E78EF24FFFFEE34FFFED3E5389FE596
:10082600379E5014E538900E1993FF120E6805385E
:10083600E53870D6053780D27FC2120EB2E4F5379E
:10084600F5387BFF7A0E7921120E78EF24FFFFEE42
:1008560034FFFED3E5389FE5379E5014E538900EF9
:100866002193FF120E680538E53870D6053780D219
:10087600120EA0D2B7D2B2C2B6C2B320A40920A724
:100886000620A50330A603120D2AE58AC395264045
:10089600E2C2B7C2B6C2B3C2B2C28C120EA0D2B204
:1008A600C2B7C2B6C2B3E58AC3940640F1C2B7C2A4
:1008B600B6C2B3C2B2C28C120EA0D2B7D2B2C2B600
:1008C600C2B320A40920A70620A50330A603120D53
:1008D6002AE58AC3952740E2C2B7C2B6C2B3C2B2FE
:1008E600C28C120EA0D2B2C2B7C2B6C2B3E58AC3D8
:1008F600940640F1C2B7C2B6C2B3C2B2C28C120EDF
:10090600A0D2B7D2B2C2B6C2B320A40920A706208D
:10091600A50330A603120D2AE58AC3952840E2C234
:10092600B7C2B6C2B3C2B2C28C120EA0D2B2C2B79E
:10093600C2B6C2B3E58AC3940640F1C2B7C2B6C214
:10094600B3C2B2C28C120EA0D2B7D2B2C2B6C2B372
:1009560020A40920A70620A50330A603120D2AE528
:100966008AC3952940E2C2B7C2B6C2B3C2B2C28C2C
:10097600120EA0D2B2C2B7C2B6C2B3E58AC39406FB
:0F09860040F1C2B7C2B6C2B3C2B2C28C02087689
:080EA000C2B7C2B6C2B3C2B270
:0A0EA800E4F58CF58AC28DD28C228D
:100EB2008F2A120E8D852A80C295120E49C2972260
:070E6100900DEBE53893FF53
:100E68008F2A120E8D852A80D295120E49C297229A
:100E8D00D287C295D296308709C297120E4DD2974E
:030E9D0080F422BC
:100A7400E4F59053A0F043A00FE4F590AFA0530722
:100A84000FBF0FF57F147E00120E51AFA053070F56
:100A9400EF640F60EF7F147E00120E51AFA0530776
:100AA4000FEF640F60DE7590FEAFA053070FEF6485
:100AB4000F6005E4F522802F7590FDAFA053070F5A
:100AC400EF640F6005752201801D7590FBAFA05384
:100AD400070FEF640F6005752202800B7590F7AF66
:100AE400A053070F752203BF0E0AE52275F003A475
:100AF400242B801DBF0D0AE52275F003A4242C804D
:100B040010E52275F003BF0B05A4242D8003A42453
:070B14002EF8E6F523AF23E4
:010B1B0022B7
:080E4900C296D2977F327E00B1
:100E51007E007F010FBF00010EBE03F8BF85F522A2
:080D2A00C2B7C2B3C2B6C2B2E7
:100D320030A4157599033099FDC2993098FDC29877
:100D4200E599B409F620A4FD30A7157599013099EB
:100D5200FDC2993098FDC298E599B409F620A7FD25
:100D620030A515E4F5993099FDC2993098FDC298E5
:100D7200E599B409F620A5FD30A6157599023099BA
:100D8200FDC2993098FDC298E599B409F620A6FDF6
:010D9200223E
:03000000020BAC44
:0C0BAC00787FE4F6D8FD758138020BF369
:100D9300BB010689828A83E0225002E722BBFE025E
:090DA300E32289828A83E4932291
:100DAC00BB010CE58229F582E5833AF583E02250FC
:100DBC0006E92582F8E622BBFE06E92582F8E22246
:0D0DCC00E58229F582E5833AF583E4932260
:100DD900BB010689828A83F0225002F722BBFE01F9
:020DE900F322F3
:100E7800E4FFFE120D93600C0FEF70010E09E9708C
:050E8800F20A80EF22D8
:100BB800020E28E493A3F8E493A34003F68001F21D
:100BC80008DFF48029E493A3F85407240CC8C3333E
:100BD800C4540F4420C8834004F456800146F6DF0D
:100BE800E4800B0102040810204080900EC2E47ECD
:100BF800019360BCA3FF543F30E509541FFEE49302
:100C0800A360010ECF54C025E060A840B8E493A3C8
:100C1800FAE493A3F8E493A3C8C582C8CAC583CAF3
:100C2800F0A3C8C582C8CAC583CADFE9DEE780BEAB
:010ED0000021
:00000001FF
