:030000000208EA09
:0C08EA00787FE4F6D8FD75810A02080052
:100800007F381208DA7F0C1208DA7F011208DA7FCB
:10081000861208DA7F061208DA7F0E1208DA758966
:1008200020758DFD759850D28EE4F5083098FD1234
:1008300008921208C90508E508D3940240EE7FC269
:100840001208DA7508033098FD1208921208C905DB
:1008500008E508D3940E40EE7F911208DA75080E71
:100860003098FD1208921208C90508E508D3941BB8
:1008700040EE7FD01208DA75081B3098FD120892FE
:0E0880001208C90508E508D3942E40EE80FE4C
:1008DA008F091208B6850990C2A012088EC2A222F8
:0708C90085990AC298AF0AED
:0A08D0008F90D2A012088EC2A2225F
:08088E00C2A1D2A27F017E008D
:10089600E4FDFCC3ED9FEC9E5015E4FBFA0BBB0098
:0F08A600010ABA04F8BBFBF50DBD00010C80E49C
:0108B5002220
:1008B600D297C2A0D2A1309709C2A2120892D2A2A0
:0308C60080F42299
:00000001FF
