:020000040000FA
:06000000DAEF00F012002F
:020006000000F8
:08000800000E966E926E956EDB
:10001000946E936E110E836E826E816E806E460EAC
:10002000E66EE66A29D8E552E552220E836E826EAC
:10003000816E806E460EE66EE66A1ED8E552E55287
:10004000020E846E440E836E826E816E806E460E4A
:10005000E66EE66A11D8E552E552880E836E826E2E
:10006000816E806E460EE66EE66A06D8E552E5526F
:10007000010E846ECFD71200D9CFE6FFE1CFD9FFB2
:10008000040EE126020EDB6A030EDB6ADE6ADD6A1D
:10009000DECF00F0DDCF01F0FD0EDBCF02F0FE0E73
:1000A000DBCF03F00250005C035001581AE2020E4D
:1000B000DB6A030EDB6A020EDBCF00F0030EDBCF40
:1000C00001F0640E005C000E015806E2020EDB2A0D
:1000D000030E01E3DB2AEFD7DF2A010E01E3DB2A5F
:1000E000D7D7040EE15C02E2E16AE552E16EE55227
:0600F000E7CFD9FF12006A
:0A00F600060EF66E000EF76E000E07
:10010000F86E00010900F550856F0900F550866F03
:1001100003E1856701D03DD00900F550806F0900EB
:10012000F550816F0900F550826F09000900F55004
:10013000E96E0900F550EA6E090009000900F55062
:10014000836F0900F550846F09000900F6CF87F02E
:10015000F7CF88F0F8CF89F080C0F6FF81C0F7FFB5
:1001600082C0F8FF0001835302E1845307E00900D5
:10017000F550EE6E8307F8E28407F9D787C0F6FFE3
:1001800088C0F7FF89C0F8FF00018507000E865B75
:04019000BFD71200C3
:0C019400000EF36E00EE00F0060E01D825
:1001A0001200EA6002D0EE6AFCD7F350E960120058
:0401B000EE6AFCD720
:0C01B40015EE00F025EE00F0F86A059C46
:1001C0007BEC00F0E8EC00F004EC00F0FBD7120050
:0201D00012001B
:00000001FF
