:020000040000FA
:06000000C8EF05F012003C
:020006000000F8
:08000800410EC26E4E0EC16EE6
:10001000956A936A9268380EE66E2ADBE5520C0EFA
:10002000E66E26DBE552010EE66E22DBE552060E99
:10003000E66E1EDBE55265D8EED8830EE66E18DB61
:10004000E552C70EC214C26EC250C26E4EDA8A0E9C
:10005000E66E0EDBE552C70EC214C26E080EC21069
:10006000C26E43DA910EE66E03DBE552C70EC21490
:10007000C26E100EC210C26E38DAC30EE66EF8DA27
:10008000E552C70EC214C26E180EC210C26E2DDA2F
:10009000CA0EE66EEDDAE552C70EC214C26E200E2D
:1000A000C210C26E22DAD10EE66EE2DAE552C70E57
:1000B000C214C26E280EC210C26E17DA970EE66E18
:1000C000D7DAE552C70EC214C26E300EC210C26E2D
:1000D0000CDA9E0EE66ECCDAE552C70EC214C26E82
:1000E000380EC210C26E01DAE66AE66A7A0EE66E71
:1000F000440EE66EEEDAE552E552E552E5529DD742
:100100001200860EE66EB4DAE5520001846B84516B
:1001100006081FE32E0E146E0B0E156E000E166EE3
:1001200084C017F0186A196A14501724F36E15501A
:100130001820F46E16501920F86EF4CFF7FFF3CFA5
:10014000F6FF0800F550E66E77DAE5520001842BE1
:10015000DED7C10EE66E8CDAE5520001846B845165
:1001600011081FE3360E146E0B0E156E000E166E80
:1001700084C017F0186A196A14501724F36E1550CA
:100180001820F46E16501920F86EF4CFF7FFF3CF55
:10019000F6FF0800F550E66E4FDAE5520001842BB9
:1001A000DED7960EE66E64DAE5520001846B845168
:1001B0000F081FE3490E146E0B0E156E000E166E1F
:1001C00084C017F0186A196A14501724F36E15507A
:1001D0001820F46E16501920F86EF4CFF7FFF3CF05
:1001E000F6FF0800F550E66E27DAE5520001842B91
:1001F000DED7E66A800EE66E3B0EE66E460EE66ED3
:1002000068DAE552E552E552E552010EE66E30DA63
:10021000E55200D01200800EE66E2ADAE5520001A7
:10022000846B845102081FE30E0E146E0B0E156EC4
:10023000000E166E84C017F0186A196A145017243D
:10024000F36E15501820F46E16501920F86EF4CF86
:10025000F7FFF3CFF6FF0800F550E66EEDD9E55253
:100260000001842BDED7870EE66E02DAE55200012C
:10027000846B845102081FE3120E146E0B0E156E70
:10028000000E166E84C017F0186A196A14501724ED
:10029000F36E15501820F46E16501920F86EF4CF36
:1002A000F7FFF3CFF6FF0800F550E66EC5D9E5522B
:1002B0000001842BDED78E0EE66EDAD9E5520001FE
:1002C000846B845102081FE3160E146E0B0E156E1C
:1002D000000E166E84C017F0186A196A145017249D
:1002E000F36E15501820F46E16501920F86EF4CFE6
:1002F000F7FFF3CFF6FF0800F550E66E9DD9E55203
:100300000001842BDED7C00EE66EB2D9E5520001A3
:10031000846B845102081FE31A0E146E0B0E156EC7
:10032000000E166E84C017F0186A196A145017244C
:10033000F36E15501820F46E16501920F86EF4CF95
:10034000F7FFF3CFF6FF0800F550E66E75D9E552DA
:100350000001842BDED7C70EE66E8AD9E552000174
:10036000846B845102081FE31E0E146E0B0E156E73
:10037000000E166E84C017F0186A196A14501724FC
:10038000F36E15501820F46E16501920F86EF4CF45
:10039000F7FFF3CFF6FF0800F550E66E4DD9E552B2
:1003A0000001842BDED7CE0EE66E62D9E552000145
:1003B000846B845102081FE3220E146E0B0E156E1F
:1003C000000E166E84C017F0186A196A14501724AC
:1003D000F36E15501820F46E16501920F86EF4CFF5
:1003E000F7FFF3CFF6FF0800F550E66E25D9E5528A
:1003F0000001842BDED7940EE66E3AD9E552000157
:10040000846B845102081FE3260E146E0B0E156ECA
:10041000000E166E84C017F0186A196A145017245B
:10042000F36E15501820F46E16501920F86EF4CFA4
:10043000F7FFF3CFF6FF0800F550E66EFDD8E55262
:100440000001842BDED79B0EE66E12D9E552000127
:10045000846B845102081FE32A0E146E0B0E156E76
:10046000000E166E84C017F0186A196A145017240B
:10047000F36E15501820F46E16501920F86EF4CF54
:10048000F7FFF3CFF6FF0800F550E66ED5D8E5523A
:100490000001842BDED7D40EE66EEAD8E5520001C7
:1004A000846B845113081FE35A0E146E0B0E156EE5
:1004B000000E166E84C017F0186A196A14501724BB
:1004C000F36E15501820F46E16501920F86EF4CF04
:1004D000F7FFF3CFF6FF0800F550E66EADD8E55212
:1004E0000001842BDED700D012000001896B8A6BDB
:1004F000800E8B6F3F0E8C6F0A6A0B6A480E0C6E73
:10050000430E0D6E89C005F08AC006F08BC007F05F
:100510008CC008F054EC04F0010A19E089C005F021
:100520008AC006F08BC007F08CC008F00A6A0B6A1C
:10053000800E0C6E3F0E0D6EBEEC03F005C089F010
:1005400006C08AF007C08BF008C08CF0D5D7C284F3
:10055000C2B4FED70001896B8A6B800E8B6F3F0E91
:100560008C6F0A6A0B6AC80E0C6E430E0D6E89C042
:1005700005F08AC006F08BC007F08CC008F054EC80
:1005800004F0010A19E089C005F08AC006F08BC0AA
:1005900007F08CC008F00A6A0B6A800E0C6E3F0EE2
:1005A0000D6EBEEC03F005C089F006C08AF007C0EE
:1005B0008BF008C08CF0D5D70A0E146E14C00CF066
:1005C000C4CF07F0D6EC05F007C080F00A0E146E19
:1005D00014C00CF0C4CF07F0D6EC05F003C081F0D6
:1005E0000A0E146E14C00CF080C007F0D6EC05F0B3
:1005F00003C082F00A0E146E14C00CF080C007F025
:10060000D6EC05F007C083F0300E00018111816F38
:10061000300E8211826F300E8311836F83C0E6FF2C
:100620000BD8E55282C0E6FF07D8E55281C0E6FF4D
:1006300003D8E55200D01200D9CFE6FFE1CFD9FFB1
:1006400033D8FE0EDB50836E818081928184E66A0E
:10065000E66AC80EE66E420EE66E3BD8E552E552FB
:10066000E552E552819400D0E552E7CFD9FF120060
:10067000D9CFE6FFE1CFD9FF17D8FE0EDB50836E4E
:10068000819081928184E66AE66AC80EE66E420E27
:10069000E66E1FD8E552E552E552E552819400D04E
:1006A000E552E7CFD9FF120095688190818281845D
:1006B000E66AE66AC80EE66E420EE66E0AD8E552B3
:1006C000E552E552E552819483BEF1D7956A00D098
:1006D0001200D9CFE6FFE1CFD9FF0001856B866B11
:1006E000800E876F3F0E886FFB0EDBCF14F0FC0E81
:1006F000DBCF15F0FD0EDBCF16F0FE0EDBCF17F0D3
:1007000014C00AF015C00BF016C00CF017C00DF0A5
:1007100085C005F086C006F087C007F088C008F0E5
:1007200054EC04F0010A24E0080ED56EF26AD76892
:10073000FC0ED66ED58EF2A4FED7D59EF29485C05F
:1007400005F086C006F087C007F088C008F00A6A86
:100750000B6A800E0C6E3F0E0D6EBEEC03F005C0F2
:1007600085F006C086F007C087F008C088F0BCD7C7
:0A07700000D0E552E7CFD9FF1200D8
:06077A000D7E0F6A0AEC7F
:1007800005F022EC05F00FB6B2EF04F00FA20AD08C
:100790000FAA03D00FBEB2EF04F00FA4BEEF04F017
:1007A000BBEF04F00FAA05D00FACBEEF04F0BBEF17
:1007B00004F00FA00AD00FA808D00FBE04D00FA4D9
:1007C00002D0C7EF04F0CBEF04F0126A036A0D50B9
:1007D000085C116E10E305C013F006C000F007C0FE
:1007E00001F008C010F00AC005F00BC006F00CC004
:1007F00007F00F3A09D00AC013F00BC000F00CC08C
:1008000001F00DC010F0116C0F9E0FBC0F8E10C0C8
:1008100002F00FB0FAEF04F01A0E1160FAEF04F0D4
:10082000026A086A0FA408D0056C061E071E081E7F
:10083000E86A0622072208220FAC08D0136C001EBB
:10084000011E021EE86A002201220222046A1152DD
:1008500007E008340732063205320432112EF9D788
:10086000055013260650002207500122085002228C
:1008700004C012F00F9E02AE0BD0126C131E001EAD
:10088000011E021EE86A13220022012202220F8E9C
:1008900002A006D0D8800132003213321232102A60
:1008A00010C002F0CEEF04F05DEC04F00FB6000CC7
:1008B0000FB0000C0FB4000C010C0F6A0AEC05F02D
:1008C00022EC05F00FB612000FAE08D00FA004D036
:1008D0000FA802D00F8012000F9012000D50085C7C
:1008E0000BE10C50075C08E10B50065C05E10A5077
:1008F000055C02E10F801200D8A002D00F8E10D04C
:1009000008500DC008F00D6E07500CC007F00C6EBB
:1009100006500BC006F00B6E05500AC005F00A6EBB
:100920000D50085C10E0FF0F09E00F900FB403D0EA
:100930000FAE0F8412000FAE0F9412000D2AD89044
:100940000C320B320A320A50055E0B50065A0C501C
:10095000075A07BEEAD7D890053606360736082E5E
:10096000F8D7C8D77F0E086EFF0E076E066E056EAD
:1009700012007F0E0FBEFF0E086E02D07F0E086EB3
:10098000800E076E066A056AF3D70FAE04D0800E9C
:10099000086E076AF7D7086A076AF4D70150001093
:1009A00013101210F8E003BEF0D701BE0CD00250B5
:1009B0000310EBE0D89012361336003601360206EB
:1009C000D8A00306F2D70350D4E10228D2E012AE39
:1009D00011D07F0E121402E113A00CD0132AE86A82
:1009E0000022012207E3D880013200321332022AAA
:1009F0000228BFE00250C9E013C005F000C006F0B5
:100A00000134076E0230086E0732089E0FBE088E52
:100A1000B8EF04F00736083602E30F840F7E06E1D4
:100A20000F80086A076A066A056A1200082803E050
:100A3000D88007321200D890073202E10F821200EC
:100A40000F8612000C360D3602E30F8C0F7E06E186
:100A50000F880D6A0C6A0B6A0A6A12000D2803E0FF
:100A6000D8800C321200D8900C32EAE10F8A1200C2
:100A7000060EF66E000EF76E000EF86E000109000D
:100A8000F550926F0900F550936F03E1926701D022
:100A90003DD00900F5508D6F0900F5508E6F0900AB
:100AA000F5508F6F09000900F550E96E0900F55007
:100AB000EA6E090009000900F550906F0900F55031
:100AC000916F09000900F6CF94F0F7CF95F0F8CFB9
:100AD00096F08DC0F6FF8EC0F7FF8FC0F8FF0001C3
:100AE000905302E1915307E00900F550EE6E900734
:100AF000F8E29107F9D794C0F6FF95C0F7FF96C0CA
:0E0B0000F8FF00019207000E935BBFD71200B2
:020B0E00413074
:100B10003D0041313D0041323D0041333D00413413
:100B20003D0041353D0041363D0041373D005745D0
:100B30004C434F4D4500554554202D204D454348CD
:100B40004154524F4E4943530041444320496E693A
:100B50007469616C697A696E670020202041626463
:0F0B6000756C6C616820546168697220202000F8
:100B7000000EF36E00EE00F0060E01D81200EA60DF
:100B800002D0EE6AFCD7F350E9601200EE6AFCD79F
:100B900015EE00F025EE00F0F86A0F9C38EC05F039
:0C0BA000E4EC05F004EC00F0FBD71200C0
:040BAC00036A080EC2
:100BB000E76ED890073603360C50035C02E3036EF1
:080BC000072AE72EF7D7120007
:020BC800120019
:020000040030CA
:0100010022DC
:0100020003FA
:010003000EEE
:010006008079
:00000001FF
