:020000040000FA
:0600000049EF01F01200BF
:020006001200E6
:060008000EEF00F01200F3
:02000E000100EF
:0C001000AE0200008D00000001000000A6
:04001C00DACFE4FF54
:10002000E2CFDAFFE9CFE4FFEACFE4FFF6CFE4FF67
:10003000F7CFE4FFF5CFE4FFF3CFE4FFF4CFE4FF25
:10004000FACFE4FF00EE00F0020EE80403E3EECF87
:10005000E4FFFBD700EE02F0000EE80403E3EECF6E
:10006000E4FFFBD7E652240EAE5C05E1010EE66E1E
:1000700082D8E55204D0AE50E66E5AD8E552AA0EA8
:10008000806EE55200EE01F0000EE80403E3E5CFD8
:10009000EDFFFBD700EE01F0020EE80403E3E5CF2D
:1000A000EDFFFBD7E5CFFAFFE5CFF4FFE5CFF3FF98
:1000B000E5CFF5FFE5CFF7FFE5CFF6FFE5CFEAFFA8
:1000C000E5CFE9FFE5CFDAFF1100948E926A806AEE
:1000D000200EAC6E0F0EAF6EAB88AB8E9D8AF28C8D
:1000E000F28EAE6A936A956A816A836A380EE66E0A
:1000F00042D8E5520C0EE66E3ED8E552010EE66E91
:100100003AD8E552060EE66E36D8E552800EE66E17
:1001100032D8E552410EE66E0BD8E552420EE66E3D
:1001200007D8E5525A0EE66E03D8E552FFD7120003
:10013000D9CFE6FFE1CFD9FF10D8FE0EDB50836E9A
:100140008180819281840A0EE66E2AD8E5528194DC
:1001500000D0E552E7CFD9FF1200956881908182E7
:1001600081840A0EE66E1CD8E552819483BEF8D7CE
:10017000956A00D01200D9CFE6FFE1CFD9FFEDDFBD
:10018000FE0EDB50836E8190819281840A0EE66EB2
:1001900007D8E552819400D0E552E7CFD9FF12008D
:1001A000D9CFE6FFE1CFD9FF0001010E8B6FFE0E24
:1001B000DB50D8808B5509E3010E8C6F8C5164089D
:1001C00002E38C2BFBD78B2BF2D700D0E552E7CF85
:0401D000D9FF120041
:0C01D4000E0EF66E000EF76E000EF86EB8
:1001E00000010900F550856F0900F550866F03E1A5
:1001F000856701D03DD00900F550806F0900F550AA
:10020000816F0900F550826F09000900F550E96E11
:100210000900F550EA6E090009000900F550836FE6
:100220000900F550846F09000900F6CF87F0F7CF79
:1002300088F0F8CF89F080C0F6FF81C0F7FF82C058
:10024000F8FF0001835302E1845307E00900F550F1
:10025000EE6E8307F8E28407F9D787C0F6FF88C0FF
:10026000F7FF89C0F8FF00018507000E865BBFD746
:0202700012007A
:0E027200000EF36E00EE00F0060E01D8120032
:10028000EA6002D0EE6AFCD7F350E9601200EE6A31
:02029000FCD799
:0E02920015EE00F025EE00F0F86A019CEAEC93
:0E02A00000F003EC00F065EC00F0FBD712005C
:0102AE00004F
:020000040030CA
:0100010022DC
:0100020003FA
:010003000EEE
:010006008079
:00000001FF
