:020000040000FA
:0600000062EF01F01200A6
:020006000000F8
:08000800936A816AF00EE66EB6
:10001000000EE66EE66A09EC01F0E552E552E552A3
:1000200070EC01F0010EE66E75D8E5520F0EE66E2B
:10003000010EE66EE66A09EC01F0E552E552E55282
:1000400070EC01F0010EE66E65D8E5520001010E7C
:100050008A6F8A5105081BE3000EE66EE66A30ECF3
:1000600001F0E552E552816E0A0EE66E53D8E55274
:10007000010EE66EE66A30EC01F0E552E552816E63
:100080000A0EE66E47D8E55200018A2BE2D7550EDC
:10009000E66E000EE66EE66A09EC01F0E552E55206
:1000A000E55270EC01F0010EE66E34D8E552AA0E6E
:1000B000E66E010EE66EE66A09EC01F0E552E552E5
:1000C000E55270EC01F0010EE66E24D8E552000115
:1000D000010E8A6F8A5105081BE3000EE66EE66A80
:1000E00030EC01F0E552E552816E0A0EE66E12D850
:1000F000E552010EE66EE66A30EC01F0E552E5529B
:10010000816E0A0EE66E06D8E55200018A2BE2D710
:10011000FFD71200D9CFE6FFE1CFD9FF020EE126CB
:10012000DE6ADD6ADECF00F0DDCF01F0FE0EDB50CF
:10013000026E036A0050025C0150035810E3050E82
:10014000D56EF00ED76EBE0ED66ED58EF2A4FED74B
:10015000D59EF294DF2A010E01E3DB2AE3D7020EDB
:10016000E15C03E200D0E16AE552E16EE552E7CFDF
:04017000D9FF1200A1
:0C017400060EF66E000EF76E000EF86E20
:1001800000010900F550856F0900F550866F03E105
:10019000856701D03DD00900F550806F0900F5500A
:1001A000816F0900F550826F09000900F550E96E72
:1001B0000900F550EA6E090009000900F550836F47
:1001C0000900F550846F09000900F6CF87F0F7CFDA
:1001D00088F0F8CF89F080C0F6FF81C0F7FF82C0B9
:1001E000F8FF0001835302E1845307E00900F55052
:1001F000EE6E8307F8E28407F9D787C0F6FF88C060
:10020000F7FF89C0F8FF00018507000E865BBFD7A6
:020210001200DA
:0E021200D9CFE6FFDACFE6FFE1CFD9FFE2CF8A
:10022000DAFFFF0EE76EFC0EDBCF00F0E7500016A2
:100230000050A96EFB0EDB50A86EA69EA69CA6845D
:10024000F29E550EA76EAA0EA76EA682A6B2FED784
:10025000F28EA694E552E5CFDAFFE7CFD9FF120080
:10026000D9CFE6FFDACFE6FFE1CFD9FFE2CFDAFF61
:10027000FF0EE76EFC0EDBCF00F0FD0EDBCF01F0D2
:10028000E7500016016A0050A96EA69CA69EA680A3
:1002900000000000A85000D0E552E5CFDAFFE7CF1C
:0402A000D9FF120070
:0C02A400000EF36E00EE00F0060E01D814
:1002B0001200EA6002D0EE6AFCD7F350E960120047
:0402C000EE6AFCD70F
:0C02C40015EE00F025EE00F0F86A059C35
:1002D000BAEC00F073EC01F004EC00F0FBD7120074
:0602E000A6B2FED71200D9
:0202E600120004
:020000040030CA
:0100010022DC
:0100020003FA
:010003000EEE
:010006008079
:00000001FF
