:020000040000FA
:060000001AEF02F01200ED
:020006000000F8
:08000800D9CFE6FFE1CFD9FFDB
:100010000F0EE126D9CFE9FFDACFEAFF410EEE6EEF
:10002000420EEE6E440EEE6E550EEE6E4C0EEE6E01
:10003000EE6E410EEE6E480EEE6E200EEE6E540E1B
:10004000EE6E410EEE6E480EEE6E490EEE6E520EE4
:10005000EE6EEE6A946A956A826A836A380EE66E7C
:1000600055D9E5520C0EE66E51D9E552010EE66EF9
:100070004DD9E552060EE66E49D9E552810EE66E7F
:1000800045D9E55200018A6BD9CFE6FFDACFE6FF0A
:1000900028EC02F0E552E552F3CF02F0F4CF03F082
:1000A0000206000E035A00018A51025C000E03583A
:1000B00012E3D9CF02F0DACF03F08A510F01022404
:1000C000E96E000E0320EA6EEF50E66EFCD8E552B2
:1000D00000018A2BD9D7E66A040EE66E0A0EE66E98
:1000E000110EE66E150EE66E0A0EE66EE66ACE0E8E
:1000F000E66E070EE66E780EE66EAAD8026E0A0E5F
:10010000E15E02500E0EE66E110EE66E040EE66E15
:10011000E66EE66A0A0EE66EE66ACC0EE66E060E3D
:10012000E66E700EE66E94D8026E0A0EE15E025024
:10013000110EE66E0E0EE66EE66A110EE66E0A0E01
:10014000E66E110EE66EE66ACA0EE66E050EE66E05
:10015000680EE66E7DD8026E0A0EE15E0250150E44
:10016000E66E0A0EE66E150EE66E0A0EE66E150EC9
:10017000E66E0A0EE66E150EE66EC80EE66E040E0C
:10018000E66E600EE66E64D8026E0A0EE15E025004
:100190001F0EE66E0F0EE66E170EE66E1B0EE66E77
:1001A0001D0EE66E1E0EE66E1F0EE66EC60EE66EA7
:1001B000030EE66E580EE66E4BD8026E0A0EE15E36
:1001C0000250040EE66E0A0EE66E040EE66EE66A55
:1001D000E66E0A0EE66E040EE66EC40EE66E020EC3
:1001E000E66E500EE66E34D8026E0A0EE15E0250E4
:1001F000110EE66E040EE66E110EE66E040EE66E4D
:10020000110EE66E040EE66E110EE66EC20EE66E7E
:10021000010EE66E480EE66E1BD8026E0A0EE15E17
:100220000250FFD7FA0EE66E86D8E552FA0EE66E59
:1002300082D8E552FA0EE66E7ED8E5520F0EE15CEA
:1002400002E2E16AE552E16EE552E7CFD9FF120022
:10025000D9CFE6FFE1CFD9FFFE0EDBCFE6FF56D8C0
:10026000E552FB0EDBCFE6FF2ED8E552FA0EDBCFD0
:10027000E6FF29D8E552F90EDBCFE6FF24D8E55298
:10028000F80EDBCFE6FF1FD8E552F70EDBCFE6FF17
:100290001AD8E552F60EDBCFE6FF15D8E552F50E7B
:1002A000DBCFE6FF10D8E552FC0EDBCFE6FF2ED801
:1002B000E552FD0EDBCFE6FF06D8E55200D0E55251
:1002C000E7CFD9FF1200D9CFE6FFE1CFD9FF10D891
:1002D000FE0EDB50836E8280829282860A0EE66E6C
:1002E0002AD8E552829600D0E552E7CFD9FF120016
:1002F00095688290828282860A0EE66E1CD8E5524C
:10030000829683BEF8D7956A00D01200D9CFE6FF57
:10031000E1CFD9FFEDDFFE0EDB50836E829082923B
:1003200082860A0EE66E07D8E552829600D0E55224
:10033000E7CFD9FF1200D9CFE6FFE1CFD9FF000107
:10034000010E8B6FFE0EDB50D8808B550FE3010E34
:100350008C6F8D6BC40ED8808C55090E8D5504E3BF
:100360008C2B000E8D23F6D78B2BECD700D0E552CB
:06037000E7CFD9FF1200E7
:0A037600060EF66E000EF76E000E84
:10038000F86E00010900F550856F0900F550866F81
:1003900003E1856701D03DD00900F550806F090069
:1003A000F550816F0900F550826F09000900F55082
:1003B000E96E0900F550EA6E090009000900F550E0
:1003C000836F0900F550846F09000900F6CF87F0AC
:1003D000F7CF88F0F8CF89F080C0F6FF81C0F7FF33
:1003E00082C0F8FF0001835302E1845307E0090053
:1003F000F550EE6E8307F8E28407F9D787C0F6FF61
:1004000088C0F7FF89C0F8FF00018507000E865BF2
:04041000BFD7120040
:0C041400000EF36E00EE00F0060E01D8A2
:100420001200EA6002D0EE6AFCD7F350E9601200D5
:04043000EE6AFCD79D
:0C04340015EE00F025EE00F0F86A019CC7
:10044000BBEC01F036EC02F004EC00F0FBD712003C
:10045000FE0EE3CFE9FFFF0EE3CFEAFFF36AF46A93
:0C046000EE5203E0F34AF42AFBD712002E
:02046C0012007C
:020000040030CA
:0100010022DC
:0100020003FA
:010003000EEE
:010006008079
:00000001FF
