:1000000006EF03F0FFFFFFFF00010B6A0A6A096AAF
:10001000086A0E6A033408360450085E0550D8A0FA
:10002000053C095E0650D8A0063C0A5E0750D8A0E1
:10003000073C0B5EE86AD8A0010E0E5E0336070E81
:100040000C6E0334083609360A360B360E36045069
:1000500003A03EEF00F0085E0550D8A0053C095E05
:100060000650D8A0063C0A5E0750D8A0073C0B5E9D
:10007000E86AD8A0010E0E5E4FEF00F0082605508A
:10008000D8B0053C09260650D8B0063C0A260750D1
:10009000D8B0073C0B26E86AD8B0010E0E2603360E
:1000A0000C2E21EF00F00234083609360A360B36E2
:1000B0000E36045003A070EF00F0085E0550D8A083
:1000C000053C095E0650D8A0063C0A5E0750D8A041
:1000D000073C0B5EE86AD8A0010E0E5E81EF00F0CF
:1000E00008260550D8B0053C09260650D8B0063C75
:1000F0000A260750D8B0073C0B26E86AD8B0010E94
:100100000E260236070E0C6E0234083609360A3601
:100110000B360E36045002A0A1EF00F0085E055029
:10012000D8A0053C095E0650D8A0063C0A5E0750E0
:10013000D8A0073C0B5EE86AD8A0010E0E5EB2EFB5
:1001400000F008260550D8B0053C09260650D8B066
:10015000063C0A260750D8B0073C0B26E86AD8B000
:10016000010E0E2602360C2E84EF00F00134083604
:1001700009360A360B360E36045002A0D3EF00F0D3
:10018000085E0550D8A0053C095E0650D8A0063C84
:100190000A5E0750D8A0073C0B5EE86AD8A0010EA3
:1001A0000E5EE4EF00F008260550D8B0053C0926A5
:1001B0000650D8B0063C0A260750D8B0073C0B269C
:1001C000E86AD8B0010E0E260136070E0C6E013417
:1001D000083609360A360B360E36045001A004EFF5
:1001E00001F0085E0550D8A0053C095E0650D8A075
:1001F000063C0A5E0750D8A0073C0B5EE86AD8A010
:10020000010E0E5E15EF01F008260550D8B0053C32
:1002100009260650D8B0063C0A260750D8B0073C3D
:100220000B26E86AD8B0010E0E2601360C2EE7EF39
:1002300000F00034083609360A360B360E36045004
:1002400001A036EF01F0085E0550D8A0053C095E1C
:100250000650D8A0063C0A5E0750D8A0073C0B5EAB
:10026000E86AD8A0010E0E5E47EF01F0082605509F
:10027000D8B0053C09260650D8B0063C0A260750DF
:10028000D8B0073C0B26E86AD8B0010E0E2600361F
:10029000070E0C6E0034083609360A360B360E3659
:1002A000045000A067EF01F0085E0550D8A0053C9F
:1002B000095E0650D8A0063C0A5E0750D8A0073C4D
:1002C0000B5EE86AD8A0010E0E5E78EF01F00826FA
:1002D0000550D8B0053C09260650D8B0063C0A2681
:1002E0000750D8B0073C0B26E86AD8B0010E0E269E
:1002F00000360C2E4AEF01F000B08DEF01F00450F3
:1003000008260550D8B0053C09260650D8B0063C52
:100310000A260750D8B0073C0B26120083B274D1CE
:100320003F6A406A416A426A800E606E960E616E54
:10033000980E626E000E636E0E0E186E1850160840
:10034000D8A080D0190EE96E000EEA6E1850E9268A
:10035000D8B0EA2AEECF04F004502E0A57E0190E66
:10036000046E000E056E18500426D8B0052A04C08D
:10037000E9FF05C0EAFFEECF00F00F0E001604C043
:10038000E1FF05C0E2FF00C0E6FF190E646E000E3B
:10039000656E18506426D8B0652A64C0E9FF65C050
:1003A000EAFFEECF00F000506002F3CF00F064C02F
:1003B000E1FF65C0E2FF00C0E6FF190EE96E000E26
:1003C000EA6E1850E926D8B0EA2AEECF00F00050C5
:1003D0003F26000E4022412242220A0E046E000EE9
:1003E000056E066E076E60C000F061C001F062C06D
:1003F00002F063C003F004EC00F000C060F001C044
:1004000061F002C062F003C063F019D000010A0E6F
:10041000046E000E056E066E076E60C000F061C0CF
:1004200001F062C002F063C003F004EC00F000C011
:1004300060F001C061F002C062F003C063F000012F
:10044000182A7CD70001436A446A456A466A000E4E
:10045000606EE10E616EF50E626E050E636E1A0E31
:10046000186E000118502308D8A080D0190EE96E2C
:10047000000EEA6E1850E926D8B0EA2AEECF04F052
:1004800004502E0A57E0190E046E000E056E185027
:100490000426D8B0052A04C0E9FF05C0EAFFEECF64
:1004A00000F00F0E001604C0E1FF05C0E2FF00C01F
:1004B000E6FF190E646E000E656E18506426D8B003
:1004C000652A64C0E9FF65C0EAFFEECF00F0005086
:1004D0006002F3CF00F064C0E1FF65C0E2FF00C03E
:1004E000E6FF190EE96E000EEA6E1850E926D8B044
:1004F000EA2AEECF00F000504326000E44224522A7
:1005000046220A0E046E000E056E066E076E60C06F
:1005100000F061C001F062C002F063C003F004ECBF
:1005200000F000C060F001C061F002C062F003C0E2
:1005300063F019D000010A0E046E000E056E066EFF
:10054000076E60C000F061C001F062C002F063C0DD
:1005500003F004EC00F000C060F001C061F002C0E4
:1005600062F003C063F00001182A7BD7000183B258
:1005700017D04750000A14E1472A3FC048F040C056
:1005800049F041C04AF042C04BF03FC04CF040C07F
:100590004DF041C04EF042C04FF0000183A2FDD7A4
:1005A000000183B217D04750010A14E1472A3FC027
:1005B00050F040C051F041C052F042C053F043C02F
:1005C00054F044C055F045C056F046C057F0000105
:1005D00083A2FDD7000183B217D04750020A14E16D
:1005E000472A3FC058F040C059F041C05AF042C0BD
:1005F0005BF043C05CF044C05DF045C05EF046C0B7
:100600005FF0000183A2FDD700011200470E000138
:10061000816F500E826F530E836F200E846F200EF9
:10062000856F520E866F4F0E876F420E886F4F0E8A
:10063000896F540E8A6F8B6B550E8C6F450E8D6FC4
:10064000540E8E6F200E8F6F4C0E906F480E916F70
:10065000520E926F2C0E936F200E946F460E956F74
:10066000530E966F440E976F986B530E996F540EFE
:100670009A6F410E9B6F520E9C6F540E9D6F450EEC
:100680009E6F440E9F6F200EA06F4D0EA16F4F0EF8
:10069000A26F560EA36F490EA46F4E0EA56F470EA4
:1006A000A66FA76B936A800E946EFF0E956E828480
:1006B000016A82B4012A000E01B0080E8218080BEC
:1006C000821A000E01B0020E8218020B821A000E6E
:1006D00001B0010E8218010B821A476A400EAF6EFC
:1006E000AC94CEEC05F0810E606E0F0E616E96EC50
:1006F00004F00C0E676E10EC05F0010E606E040E37
:10070000616E810E626E000E636E5AEC05F0020E91
:10071000606E030E616E8C0E626E000E636E5AEC9C
:1007200005F09EEC05F09EEC05F09EEC05F0010E48
:10073000676E10EC05F03E50000A03E10EEC04F089
:10074000FAD73E6A8EEC01F04750030A01E0F3D776
:10075000476A83B4FED7010E676E10EC05F0010EF8
:10076000606E010E616E990E626E000E636E5AEC41
:1007700005F03E50000A03E10EEC04F0FAD73E6AA1
:100780008EEC01F048C001F049C002F04AC003F00D
:100790004BC004F03F50015E4050025A4150035A92
:1007A0004250045A4CC0A8F04DC0A9F04EC0AAF067
:1007B0004FC0ABF043500001A85F4450A95B4550C7
:1007C000AA5B4650AB5B829482920450000808E119
:1007D0000350000805E10250000802E1015014082E
:1007E0000CE2AB51000808E1AA51000805E1A9514B
:1007F000000802E1A85114080CE300018282016A9A
:1008000082B2012A000E01B0040E8218040B821A73
:1008100002D00001A4D70001FED7FFD7F0EC05F00D
:10082000005200E0D9EC05F00050240AD8A47DD095
:10083000F0EC05F00052FCE0D9EC05F00050470A5E
:10084000D8A473D0F0EC05F00052FCE0D9EC05F030
:100850000050500AD8A469D0F0EC05F00052FCE03A
:10086000D9EC05F00050520A60E1F0EC05F00052BE
:10087000FCE0D9EC05F000504D0A57E1F0EC05F032
:100880000052FCE0D9EC05F00050430A4EE1186A32
:100890001850250816E3F0EC05F00052FCE0190EA4
:1008A000606E000E616E18506026D8B0612AD9ECD7
:1008B00005F060C0E1FF61C0E2FF00C0E6FF182A5A
:1008C000E7D7010E676E10EC05F0800E676E10EC36
:1008D00005F00E0E186E185018080EE3190EE96E8A
:1008E000000EEA6E1850E926D8B0EA2AEECF66F07C
:1008F000E2EC05F0182AEFD7C00E676E10EC05F099
:100900001A0E186E185025080EE3190EE96E000E27
:10091000EA6E1850E926D8B0EA2AEECF66F0E2EC8B
:1009200005F0182AEFD7010E3E6E120060C015F0D8
:1009300061C016F015C0E1FF16C0E2FF120EE126FD
:10094000E796E794E790E79EE79CE79AE798120E10
:10095000E15EE796E794E790E79EE79CE79AE798E1
:10096000BFEC05F0E78AE788E786EAEC05F0E79652
:10097000BFEC05F0E78AE788E786EAEC05F0E79642
:10098000F6EC05F0F6EC05F0E78AE788E786EAEC96
:1009900005F0E796BFEC05F0E78AE798E786EAEC12
:1009A00005F0E796F6EC05F0E78AE798E786EAECCB
:1009B00005F0E796E78EE79CE786EAEC05F0E79618
:1009C000F6EC05F0000EE76EE786EAEC05F0E79638
:1009D000E78EE78CE78AE788E786EAEC05F0E7969A
:1009E000F6EC05F0000EE76EE786EAEC05F0E79618
:1009F000E788E786EAEC05F0E796BFEC05F0000E25
:100A0000E76EE786EAEC05F0E796E78CE78AE7868B
:100A1000EAEC05F0E796F6EC05F0010E176E120011
:100A200015C000F016C001F000C015F001C016F0AE
:100A300015C0E9FF16C0EAFF675200E0EF96EF9499
:100A4000EF9EEF9CEF9AEF9867BEEF8E67BCEF8C3E
:100A500067BAEF8A67B8EF881750010A03E1EF948D
:100A600033EF05F0EF84EF86EAEC05F0675200E023
:100A7000EF96EF94EF9EEF9CEF9AEF9867B6EF8EAC
:100A800067B4EF8C67B2EF8A67B0EF881750010A3E
:100A900003E1EF944DEF05F0EF84EF86EAEC05F00B
:100AA000EF961750010A03E1BFEC05F002D0F6EC17
:100AB00005F012000FD0800E606E19D0C00E606E6F
:100AC00016D0940E606E13D0D40E606E10D0800ECF
:100AD000606E0DD06050010AEEE06050020AEEE058
:100AE0006050030AEEE06050040AEEE0F0D76104C3
:100AF000006E6050002600C060F000C067F010EC8F
:100B000005F0176A646A656A64506224E96E65508C
:100B10006320EA6EEECF00F000520DE064506224D4
:100B2000E96E65506320EA6EEECF67F010EC05F0D9
:100B3000644A652AE9D7010E176E12001A0E0C6E70
:100B4000FF0E0B6EFF0E0A6E0C2E01D007D00B2E7F
:100B500001D003D00A2EFED7FAD7F6D77F0E0B6E40
:100B6000FF0E0A6E0B2E01D003D00A2EFED7FAD745
:100B7000580E0A6E0A2EFED7000000001200240E46
:100B80000B6EFF0E0A6E0B2E01D003D00A2EFED77D
:100B9000FAD79E0E0A6E0A2EFED71200AC8A900E6D
:100BA000AB6E948E949C9EAA03D0AECF64F0FBD71C
:100BB0001200AECF66F0ABA202D0AB98AB8866C095
:100BC00000F01200176A66C067F010EC05F0010E25
:100BD000176E1200010E0A6E0A2EFED700001200D8
:100BE000016A9EBA012A01C000F01200530E0A6E7B
:100BF0000A2EFED71200FFFFFFFFFFFFFFFFFFFFE0
:020000040030CA
:0E000000FFFFFFFFFFFFFFFFFFFFFFFFFFFF00
:00000001FF
