:100923002D2D2057656C636F6D65202D2D55455416
:1009330020465344204D454348412D30394162649C
:10094300756C6C61682054616869724861626962A0
:100953002053756C74616E002D2D20477569646595
:10096300202D2D50726F6A6563742063616E20625F
:1009730065207E7573656420666F7220636F756E84
:1009830074692D6E67206F626A656374732C70657A
:100993006F706C652C206576656E74736574632E59
:1009A30000313A204D616E75616C6C79323A204F9B
:1009B30053432F53454E0050756C7365733D313A65
:1009C3004D616E75616C6C7920323A52535400500C
:1009D300756C736573203D313A4F53432F53454E26
:0709E30020323A5253540088
:0E0DB2000C083132333435363738392A3023C5
:03000300020B1ECF
:100B1E00C0E0C0F0C083C082C0D075D000C000C09D
:100B2E0001C002C003C004C005C006C0070517E51A
:100B3E001775F00A84F518E51775F00A8485F01418
:100B4E00E51875F00A8485F015E51875F00A84F538
:100B5E00164314304315304316307F8A120D8FAF73
:100B6E0016120D79AF15120D79AF14120D7920B240
:100B7E0006C2A7D2A680F7D2A7C2A6D007D006D0AB
:100B8E0005D004D003D002D001D000D0D0D082D076
:060B9E0083D0F0D0E0322C
:100D0500E4F590F5A0C2A4D2A5C2A7C2A6F51775B1
:100D1500A8817F38120D8F7F0C120D8F7F01120D68
:100D25008F7F06120D8F7F82120D8F120BA4120971
:090D3500EA120C2212080380FEF0
:100BA400E4F519900923120D750519E519D3940C70
:100BB40040F17F907E01120D467FC0120D8F751992
:100BC4000DE51990092393FF120D790519E519D341
:100BD400941C40ED7FDC7E05120D467F01120D8FC3
:100BE4007F81120D8F75191DE51990092393FF124A
:100BF4000D790519E519D3942A40ED7FC2120D8FA2
:100C040075192BE51990092393FF120D790519E540
:0D0C140019D3943640ED7FDC7E05120D46AD
:010C210022B0
:1009EA007F01120D8F7F82120D8FE4F519120D729D
:1009FA000519E519D3940A40F47FC0120D8F7519B1
:100A0A000B120D720519E519D3941A40F412080055
:100A1A007F01120D8F7F80120D8F75191B120D72B7
:100A2A000519E519D3942A40F47FC0120D8F751960
:100A3A002B120D720519E519D3943540F47FCF12A4
:100A4A000D8F7F7E120D791208007F01120D8F7FA4
:100A5A0080120D8F751936120D720519E519D39486
:100A6A004340F47FC0120D8F751944120D72051997
:100A7A00E519D3944740F47FCF120D8F7F7E120D74
:070A8A0079751C011208033D
:010A91002242
:100C2200E4F517751C02C2A7C2A6C2A4D2A57F0111
:100C3200120D8F7F80120D8F7F01120D8F7F801218
:100C42000D8FE4F519E5199009A493FF120D7905AA
:100C520019E519D3940A40ED7FC0120D8F75190B57
:100C6200E5199009A493FF120D790519E519D3949A
:060C72001440ED1208031E
:010C78002259
:100C7900751C04120D897F80120D8FE4F519E51991
:100C89009009BA93FF120D790519E519D394064015
:100C9900ED7FC0120D8F751907E5199009BA93FFF9
:100CA900120D790519E519D3941640EDD2A4D2A7EE
:050CB900C2A5120803B2
:010CBE002213
:100CBF00751C03120D897F80120D8FE4F519E5194C
:100CCF009009D293FF120D790519E519D3940740B6
:100CDF00ED7FC0120D8F751908E5199009D293FF9A
:100CEF00120D790519E519D3941640EDD2A4D2A7A8
:050CFF00C2A51208036C
:010D040022CC
:060D8900C2A7C2A67F0113
:100D8F008F20120D9F852080C295120D3EC2972293
:070D720090095BE51993FFF6
:100D79008F20120D9F852080D295120D3EC2972299
:100D9F00D287C295D296308709C297120D42D29749
:030DAF0080F422AB
:03080000751C0163
:1008030075A0FFE51CB40108C2A7C2A6C2A4D2A565
:10081300E51CB40208C2A7C2A6C2A4D2A5E51C6403
:10082300036005E51CB40408D2A4D2A7C2A5C2A6DE
:10083300E4F590AFA053070FBF0FF57F147E0012AE
:100843000D46AFA053070FEF640F60EF7F147E00D8
:10085300120D46AFA053070FEF640F60DE7590FED5
:10086300AFA053070FEF640F6005E4F51F802F75EA
:1008730090FDAFA053070FEF640F6005751F018054
:100883001D7590FBAFA053070FEF640F6005751F35
:1008930002800B7590F7AFA053070F751F03BF0EB0
:1008A3000AE51F75F003A42408801DBF0D0AE51F88
:1008B30075F003A424098010E51F75F003BF0B0531
:1008C300A4240A8003A4240BF8E6F51DE51CB40157
:1008D30006E51D64236048E51CB4020EE51DB43132
:1008E300028039E51DB43202801DE51C64036005F6
:1008F300E51CB40408E51DB43203020C22E51CB464
:100903000308E51DB43103020C79E51C640460039C
:0F091300020833E51D64316003020833120CBF84
:0109220022B2
:080D3E00C296D2977F327E00BD
:100D4600751A00751B01C3E51B9FE51A9E501C759D
:100D56008901758CFC758A66D28C308DFDC28CC279
:0C0D66008D051BE51B70DF051A80DB22E9
:03000000020A925F
:0C0A9200787FE4F6D8FD758120020AD9B7
:100A9E00020D05E493A3F8E493A34003F68001F25C
:100AAE0008DFF48029E493A3F85407240CC8C33359
:100ABE00C4540F4420C8834004F456800146F6DF28
:100ACE00E4800B0102040810204080900DB2E47EF9
:100ADE00019360BCA3FF543F30E509541FFEE4931D
:100AEE00A360010ECF54C025E060A840B8E493A3E4
:100AFE00FAE493A3F8E493A3C8C582C8CAC583CA0F
:100B0E00F0A3C8C582C8CAC583CADFE9DEE780BEC6
:010DC0000032
:00000001FF
