:100923002D2D2057656C636F6D65202D2D55455416
:1009330020465344204D454348412D30394162649C
:10094300756C6C61682054616869724861626962A0
:100953002053756C74616E002D2D20477569646595
:10096300202D2D50726F6A6563742063616E20625F
:1009730065207E7573656420666F7220636F756E84
:1009830074692D6E67206F626A656374732C70657A
:100993006F706C652C206576656E74736574632E59
:1009A30000313A204D616E75616C6C79323A204F9B
:1009B30053432F53454E0050756C7365733D313A65
:1009C3004D616E75616C6C7920323A52535400500C
:1009D300756C7365733D313A4F53432F53454E2026
:0609E300323A52535400A9
:0E0D35000C083132333435363738392A302342
:03000300020D25C6
:100D250020B206D2A6C2A780F7C2A6D2A705143262
:100C7B00E4F590F5A0C2A4D2A5C2A7C2A6F514753F
:100C8B00A8817F38120D027F0C120D027F01120D0D
:100C9B00027F06120D027F82120D02120B1D12092A
:060CAB00E9120B9B80FE24
:100B1D00E4F515900923120CE80515E515D3940C91
:100B2D0040F17F907E01120CB97FC0120D02751538
:100B3D000DE51590092393FF120CEC0515E515D362
:100B4D00941C40ED7FDC7E05120CB97F01120D0265
:100B5D007F81120D0275151DE51590092393FF1266
:100B6D000CEC0515E515D3942A40ED7FC2120D024C
:100B7D0075152BE51590092393FF120CEC0515E562
:0D0B8D0015D3943640ED7FDC7E05120CB9C7
:010B9A002238
:1009E9007F01120D027F82120D02E4F515120CE54A
:1009F9000515E515D3940A40F47FC0120D0275154B
:100A09000B120CE50515E515D3941A40F4120800EC
:100A19007F01120D027F80120D0275151B120CE564
:100A29000515E515D3942A40F47FC0120D027515FA
:100A39002B120CE50515E515D3943540F47FCF123B
:100A49000D027F7E120CEC1208007F01120D027F4D
:100A590080120D02751536120CE50515E515D394AE
:100A69004340F47FC0120D02751544120CE50515BB
:100A7900E515D3944740F47FCF120D027F7E120C07
:070A8900EC751801120803CF
:010A90002243
:100B9B00751802C2A7C2A6C2A4D2A57F01120D026C
:100BAB007F80120D027F01120D027F80120D02E475
:100BBB00F515E5159009A493FF120CEC0515E51539
:100BCB00D3940A40ED7FC0120D0275150BE51590FD
:100BDB0009A493FF120CEC0515E515D3941440ED05
:030BEB00120803EA
:010BEE0022E4
:100BEF00751804120CFC7F80120D02E4F515E51543
:100BFF009009BA93FF120CEC0515E515D394064036
:100C0F00ED7FC0120D02751507E5159009BA93FF18
:100C1F00120CEC0515E515D3941640EDD2A4D2A70E
:050C2F00C2A51208033C
:010C3400229D
:100C3500751803120CFC7F80120D02E4F515E515FD
:100C45009009D293FF120CEC0515E515D3940640D7
:100C5500ED7FC0120D02751507E5159009D293FFBA
:100C6500120CEC0515E515D3941540EDD2A4D2A7C9
:050C7500C2A5120803F6
:010C7A002257
:060CFC00C2A7C2A67F01A1
:100D02008F1B120D12851B80C295120CB1C2972245
:070CE50090095BE51593FF88
:100CEC008F1B120D12851B80D295120CB1C297224C
:100D1200D287C295D296308709C297120CB5D29764
:030D220080F42238
:0308000075180167
:1008030075A0FFE518B40108C2A7C2A6C2A4D2A569
:10081300E518B40208C2A7C2A6C2A4D2A5E518640B
:10082300036005E518B40408D2A4D2A7C2A5C2A6E2
:10083300E4F590AFA053070FBF0FF57F147E0012AE
:100843000CB9AFA053070FEF640F60EF7F147E0066
:10085300120CB9AFA053070FEF640F60DE7590FE63
:10086300AFA053070FEF640F6005E4F51A802F75EF
:1008730090FDAFA053070FEF640F6005751A018059
:100883001D7590FBAFA053070FEF640F6005751A3A
:1008930002800B7590F7AFA053070F751A03BF0EB5
:1008A3000AE51A75F003A42408801DBF0D0AE51A92
:1008B30075F003A424098010E51A75F003BF0B0536
:1008C300A4240A8003A4240BF8E6F519E518B4015F
:1008D30006E51964236048E518B4020EE519B4313E
:1008E300028039E519B43202801DE51864036005FE
:1008F300E518B40408E519B43203020B9BE518B4F8
:100903000308E519B43103020BEFE518640460032F
:0F091300020833E51964316003020833120C3512
:0109220022B2
:080CB100C296D2977F327E004B
:100CB900751600751701C3E5179FE5169E501C753B
:100CC9008901758CFC758A66D28C308DFDC28CC207
:0C0CD9008D0517E51770DF051680DB2283
:03000000020A9160
:0C0A9100787FE4F6D8FD75811B020AD8BE
:100A9D00020C7BE493A3F8E493A34003F68001F2E8
:100AAD0008DFF48029E493A3F85407240CC8C3335A
:100ABD00C4540F4420C8834004F456800146F6DF29
:100ACD00E4800B0102040810204080900D35E47E77
:100ADD00019360BCA3FF543F30E509541FFEE4931E
:100AED00A360010ECF54C025E060A840B8E493A3E5
:100AFD00FAE493A3F8E493A3C8C582C8CAC583CA10
:100B0D00F0A3C8C582C8CAC583CADFE9DEE780BEC7
:010D430000AF
:00000001FF
