:020000040000FA
:0600000025EF01F01200E3
:020006000000F8
:08000800000E966E956E946ED9
:10001000936E926E806A010EE66E21D8E552AA0EAA
:10002000806E816A010EE66E56D8E552AA0E816E88
:10003000826A010EE66E6ED8E552AA0E826E836A5F
:10004000010EE66E85D8E552AA0E836E846A010E13
:10005000E66E24D8E552AA0E846EDCD71200D9CF02
:10006000E6FFE1CFD9FF0001010E8A6FFE0EDB50E3
:10007000D8808A550EE3080ED56ECF0ED76E2C0EA3
:10008000D66ED58EF2A4FED7D59EF29400018A2BAF
:10009000EDD700D0E552E7CFD9FF1200D9CFE6FF68
:1000A000E1CFD9FF0001010E8A6FFE0EDB50D88030
:1000B0008A550CE3450ED56E3D0ED66ED58EF2A454
:1000C000FED7D59EF29400018A2BEFD700D0E552DF
:1000D000E7CFD9FF1200D9CFE6FFE1CFD9FF00016A
:1000E000010E8A6FFE0EDB50D8808A550EE3300E6B
:1000F000CD6EF30ECF6ECB0ECE6ECD809EA0FED712
:10010000CD909E9000018A2BEDD700D0E552E7CF2D
:10011000D9FF1200D9CFE6FFE1CFD9FF0001010ED0
:100120008A6FFE0EDB50D8808A550DE34A0ECA6EE8
:10013000CC6A9C0ECB6ECA849EA2FED7CA949E92B5
:1001400000018A2BEED700D0E552E7CFD9FF12008D
:10015000D9CFE6FFE1CFD9FF0001010E8A6FFE0E75
:10016000DB50D8808A550DE3B16A3C0EB36EB00EF9
:10017000B26EB180A1A2FED7B190A19200018A2BEC
:0C018000EED700D0E552E7CFD9FF120007
:04018C00060EF66EF7
:10019000000EF76E000EF86E00010900F550856F35
:1001A0000900F550866F03E1856701D03DD0090055
:1001B000F550806F0900F550816F0900F550826F8E
:1001C00009000900F550E96E0900F550EA6E0900D2
:1001D00009000900F550836F0900F550846F09008C
:1001E0000900F6CF87F0F7CF88F0F8CF89F080C00C
:1001F000F6FF81C0F7FF82C0F8FF0001835302E1E0
:10020000845307E00900F550EE6E8307F8E2840797
:10021000F9D787C0F6FF88C0F7FF89C0F8FF000153
:0A0220008507000E865BBFD71200B1
:06022A00000EF36E00EE71
:1002300000F0060E01D81200EA6002D0EE6AFCD788
:0A024000F350E9601200EE6AFCD7EB
:06024A0015EE00F025EEA8
:1002500000F0F86A019CC6EC00F033EC01F004EC0D
:0602600000F0FBD71200C4
:02026600120084
:020000040030CA
:0100010022DC
:0100020003FA
:010003000EEE
:010006008079
:00000001FF
