:0E09F2000C083132333435363738392A302389
:10093500E4F5B0F590F58075A0FF7F381209D27FF8
:100945000C1209D27F011209D27F061209D27F80CB
:100955001209D27F411209E27F421209E27F5A123F
:1009650009E21209777F011209D21208001209E281
:0209750080F010
:1009D2008F161209BF851680C295120991C29722FD
:1009E2008F161209BF851680D295120991C29722DD
:1009BF00D287C295D296308709C297120995D297DE
:0309CF0080F4228F
:10080000E4F5B0F590F58075A0FFE4F590AFA05346
:10081000070FBF0FF57F147E00120999AFA0530791
:100820000FEF640F60EF7F147E00120999AFA053A1
:10083000070FEF640F60DE7590FEAFA053070FEF58
:10084000640F6005E4F516802F7590FDAFA0530787
:100850000FEF640F6005751601801D7590FBAFA04A
:1008600053070FEF640F6005751602800B7590F744
:10087000AFA053070F751603BF0E0AE51675F003F8
:10088000A42408801DBF0D0AE51675F003A42409F1
:100890008010E51675F003BF0B05A4240A8003A49D
:0808A000240BF8E6F517AF1771
:0108A800222D
:08099100C296D2977F327E006E
:100999007E007F010FBF00010EBE07F8BFD1F5220F
:10097700900001AF82AE83E4FCFD7B607AEAF9F870
:09098700C31209A94003A380EA90
:010990002244
:030000000208A94A
:0C08A900787FE4F6D8FD7581170208F096
:1009A900EB9FF5F0EA9E42F0E99D42F0EC6480C8C5
:0609B90064809845F02265
:1008B500020935E493A3F8E493A34003F68001F21B
:1008C50008DFF48029E493A3F85407240CC8C33344
:1008D500C4540F4420C8834004F456800146F6DF13
:1008E500E4800B01020408102040809009F2E47EA8
:1008F500019360BCA3FF543F30E509541FFEE49308
:10090500A360010ECF54C025E060A840B8E493A3CE
:10091500FAE493A3F8E493A3C8C582C8CAC583CAF9
:10092500F0A3C8C582C8CAC583CADFE9DEE780BEB1
:010A000000F5
:00000001FF
